:020000040800F2
:10000000B80D00209D010008A50100083517000863
:10001000A9010008AB010008AD01000800000000C4
:10002000000000000000000000000000AF01000818
:10003000B101000800000000B30100083D420008C3
:10004000B7010008B7010008B7010008B7010008B0
:10005000B7010008B7010008B7010008B7010008A0
:10006000B7010008B7010008B7010008B701000890
:10007000B7010008B7010008B7010008B701000880
:10008000B7010008B701000825030008B701000800
:10009000B7010008B7010008B7010008BD04000857
:1000A000154300083D430008B7010008B7010008E8
:1000B000B7010008B7010008B7010008B701000840
:1000C000B7010008B7010008B7010008B701000830
:1000D000B701000881550008B7010008B701000802
:1000E000B7010008B7010008B7010008B701000810
:1000F000B7010008B7010008B7010008B701000800
:10010000B7010008B7010008B7010008B7010008EF
:10011000B7010008B7010008B7010008B7010008DF
:10012000B7010008B7010008B7010008B7010008CF
:10013000B7010008B7010008B7010008B7010008BF
:10014000B7010008B7010008B7010008B7010008AF
:10015000B7010008B7010008B7010008B70100089F
:10016000B7010008B7010008B7010008B70100088F
:10017000B7010008B7010008B7010008000000003F
:10018000B7010008B7010008DFF80CD000F08CF8C8
:10019000004800475D580008B80D00200648804719
:1001A00006480047FEE7FEE7FEE7FEE7FEE7FEE75C
:1001B000FEE7FEE7FEE7FEE7F942000889010008D6
:1001C0002DE9F05F0546002092469B46884606468C
:1001D000814640241BE0284641464746224600F01F
:1001E00053F853465A46C01A914110D31146184647
:1001F000224600F03AF82D1A67EB01084F462246D6
:100200000120002100F031F817EB00094E41201EBB
:10021000A4F10104DFDC484631462A464346BDE8E6
:10022000F09F40EA01039B0703D009E008C9121FB1
:1002300008C0042AFAD203E011F8013B00F8013BA0
:10024000521EF9D27047D2B201E000F8012B491ECC
:10025000FBD270470022F6E710B513460A46044663
:100260001946FFF7F0FF204610BD202A04DB203A94
:1002700000FA02F1002070479140C2F1200320FAF9
:1002800003F3194390407047202A04DB203A21FAF7
:1002900002F00021704721FA02F3D040C2F120029F
:1002A0009140084319467047064C074D06E0E06848
:1002B00040F0010394E8070098471034AC42F6D3AD
:1002C000FFF766FF005D0008205D000870B58C1820
:1002D00010F8015B15F0070301D110F8013B2A115A
:1002E00006D110F8012B03E010F8016B01F8016B47
:1002F0005B1EF9D12B0705D40023521E0DD401F843
:10030000013BFAE710F8013BCB1A921C03E013F80B
:10031000015B01F8015B521EF9D5A142D8D3002040
:1003200070BD000008480168C1F3800121B1016877
:1003300021F00C01016005E0D0F8001221F00C0161
:10034000C0F8001204F0B6B900200140464910B5CB
:100350004A6822F440324A604A6843681A434A6055
:1003600001684A6822F480724A6001684A68036939
:1003700042EA03224A6001684A6822F040724A60F9
:1003800001684A6883681A434A6001688A6822F4EF
:1003900000628A6001688A68C3681A438A60816A59
:1003A0006FF07062D14201688A6822F070628A60E0
:1003B00001688A680CD0836A1A438A6001688A6877
:1003C00022F040528A6001688A68C36A1A4301E0D9
:1003D00022F040528A6001688A6822F002028A6034
:1003E00001688A68037E42EA43028A6090F820101E
:1003F000002901684A680FD042F400624A6001682F
:100400004A6822F460424A6001684A68174C436AAD
:1004100004EB43331A4301E022F400624A600168AE
:10042000CA6A22F47002CA620168CA6A838B104CDD
:1004300004EB03531A43CA6201688A6822F400720B
:100440008A6001688A6890F8303042EA43228A6004
:1004500001688A6822F480628A6001688A6840695B
:1004600042EA8020886010BD0023014000E0FFFFC9
:100470000000F0FF30B5044608460AB212FB02F352
:10048000091411FB013325886D439D4215D294F860
:10049000B250C5EB1363DBB204EB43039B885A43B2
:1004A000D41702EB5442D21362F30F005943CA1718
:1004B00001EB5241C91361F31F4030BD044801688C
:1004C00011F0400F03D04021016004F0C0BE70471E
:1004D000143C014010B5002178B101784378002226
:1004E000194405E08418521CA478D2B2214489B280
:1004F0009342F7D801EB1120C1B2084610BD00218C
:1005000041820175417580F8961080F8971080F847
:10051000981080F8991080F89A1080F81B1180F8D4
:100520001C1180F81D11704710B50028029C01D0E5
:1005300080E81E0010BD000000EB400101EB00123E
:1005400010B5074901EB420494F82410002906D1A4
:10055000044951F8200003F06EFAE083208210BDB8
:100560002C0700209806002010B5044600EB44003C
:1005700000EB04121348002100EB42021248116004
:100580005160D1601161D183C2F81610C2F81A10FF
:10059000118450F8240002F0A6F90B480021001D38
:1005A00050F8240002F09FF90748083850F824005A
:1005B00003F06FFA0448103050F82400BDE81040F2
:1005C00002F0F4BA2C070020A00600202DE9F84F15
:1005D0002848006803F0CEFA834603F0EDF9804620
:1005E000584603F0ECF9234F69461837386802F093
:1005F0000AFA009801F03AFA8246414601F05AFAA6
:100600001D4C064631B2B4F91000411AA7F1100092
:10061000006802F071F960F30F05B4F91200A0EB65
:100620002641A7F10C00006802F066F9294660F344
:100630001F4107F108000068FFF71CFF814658467C
:1006400003F0BDF94146484601F072FA05462946D5
:10065000386802F0DAF90146C4F816900098E660AE
:10066000C4E9000AC4F81A50A4F820800846BDE87E
:10067000F88F0000980600202C070020704700002B
:1006800070B590F83C20694D012A19D0012280F8FC
:100690003C200A6807230468092A13D9E6680A3A45
:1006A00002EB420293409E43E6600A788B680A3A66
:1006B00002EB420293400268D4682343D36010E007
:1006C000022070BD266902EB420293409E432661E0
:1006D0000A788B6802EB4202934002681469234354
:1006E00013610268936B23F4401393630268936B66
:1006F0000C8A4F4E06EB0454234393630A790B7C18
:10070000D21AD21C02EB82021F2393400268946B20
:100710009C4394630A790B7CD21AD21C02EB8203AD
:100720000A8892B29A4003689C6B22439A638A6952
:10073000AA420268936823F4702393600268936866
:100740000CD08C69234393600268936823F44013B0
:10075000936002689368CC69234301E023F440135B
:1007600093604A7D002A0268536802D043F4806394
:1007700001E023F4806353600A7D002A0268536815
:1007800002D043F4805301E023F4805353604A685D
:10079000012A16D0022A1FD0032A026827D0136A22
:1007A0006FF30B0313620268136ACC68234313626E
:1007B000214B04681F4A9C4227D10C68122C20D080
:1007C00023E0026853696FF30B03536102685369B6
:1007D000CC6823435361EBE7026893696FF30B0323
:1007E000936102689369CC6823439361E0E7D3691E
:1007F0006FF30B03D3610268D369CC682343D361E1
:10080000D6E7546844F48004546004689C4208D1DC
:100810000968102901D0112903D1516841F4000160
:100820005160002180F83C10084670BD01000F00A7
:100830000000F0FF002301400020014078B50024B3
:10084000009490F83C20012A19D0012280F83C2025
:100850000A6807230568092A13D9EE680A3A02EBE9
:10086000420293409E43EE600B788A680A3B03EB9A
:1008700043039A400368DD682A43DA6010E00220EF
:1008800078BD2E6902EB420293409E432E610B78A5
:100890008A6803EB43039A4003681D692A431A617F
:1008A0004A681F23072A13D205686E6B521E02EB9B
:1008B000820293409E436E630B790A885B1E92B25C
:1008C00003EB83039A4003685D6B2A435A6327E076
:1008D00005680D2A12D22E6BD21F02EB82029340C2
:1008E0009E432E630B790A88DB1F92B203EB8303CE
:1008F0009A4003681D6B2A431A6311E0EE6A0D3AB1
:1009000002EB820293409E43EE620B790A880D3B14
:1009100092B203EB83039A400368DD6A2A43DA62EA
:10092000164B0568144A9D4206D10D68122D03D15D
:10093000556845F48005556005689D4218D10B68DF
:10094000102B01D0112B13D1536843F400035360D3
:10095000096810290CD10A490A4A0968B1FBF2F169
:1009600001EB8101490000E0491E00910029FBD103
:1009700080F83C40002078BD002301400020014069
:10098000FC06002040420F0070B504004FF0000547
:1009900003D0206C002610B107E0012070BD204676
:1009A00000F01CF8666484F83C60206CC00610D42B
:1009B000206C20F4885040F0020020642046FFF7AD
:1009C000C5FC6664206C20F0020040F00100206449
:1009D00000E0012584F83C60284670BDF0B587B082
:1009E000044614216846FFF735FC2949274F236840
:1009F0000024274814390325264A274EBB4219D123
:100A0000036843F480730360006800F4807005900D
:100A1000086840F001000860086800F001000590D7
:100A2000086840F002000860086800F002000590C5
:100A300062201BE0194FBB4226D1036843F40073C8
:100A40000360006800F400700590086840F0010041
:100A50000860086800F001000590086840F0020096
:100A60000860086800F0020005904020CDE900050C
:100A700069460294104600F013F80095CDE9015440
:100A80006946304600F00CF807B0F0BD0020014088
:100A900044380240000002400004024000210140AE
:100AA0002DE9F84F00224FF0010803254FF00F0EFB
:100AB0000B6808FA02F42340A3426ED14E68012E5F
:100AC00005D0022E03D0112E01D0122E12D186682D
:100AD0004FEA420C05FA0CF7BE43CF6807FA0CF751
:100AE000374387604668A6430C79C4F300149440EA
:100AF00034434460C668570005FA07FC8C6826EA50
:100B00000C06BC403443C4604C68022C01D0122C4B
:100B100013D1D40800EB8404A346D4F820905407E2
:100B20004FEAD46A0EFA0AF629EA06090E6906FAAD
:100B30000AF646EA0906CBF8206006680C7926EA30
:100B40000C0604F00304BC40344304604C68E40029
:100B500065D5364C266846F480462660246822F027
:100B6000030604F480440094314C3444A446D4F881
:100B700008489607370F0EFA07F6B4432D4EB042D9
:100B800001D1002624E02C4EB04201D101261FE005
:100B90002A4EB04202D102261AE040E0284EB0426E
:100BA00001D1032614E0274EB04201D104260FE004
:100BB000254EB04201D105260AE0244EB04201D1B3
:100BC000062605E0224EB04201D1072600E00826A5
:100BD000BE402643CCF808681E4E34684F689C43DC
:100BE000FF0300D51C4334601A4C241D26684F684F
:100BF0009E43BF0300D51E432660164E0836346858
:100C00004F689C43FF0200D51C433460114E0C36E4
:100C100034684F689C43BF0200D51C433460521CAB
:100C2000102AFFF445AFBDE8F88F000044380240B9
:100C30000030014000000240000402400008024071
:100C4000000C024000100240001402400018024054
:100C5000001C0240003C01400148806870470000D1
:100C6000F0060020024881680278114481607047D4
:100C7000F00600200B4810B5016841F400710160D6
:100C8000016841F480610160016841F48071016094
:100C9000032000F06FF8042000F006F800F024F8BC
:100CA000002010BD003C024070B50D4D04464FF4CD
:100CB0007A712878B1FBF0F00A490968B1FBF0F0CD
:100CC00000F009FB48B9102C07D200222146501E23
:100CD00000F030F800206C6070BD012070BD000095
:100CE000F0060020FC0600200A4808B5016841F41F
:100CF00080410160006800F4804000900548001FBA
:100D0000016841F080510160006800F0805000905F
:100D100008BD000044380240002809DB00F01F0233
:100D2000012191404009800000F1E020C0F800114D
:100D300070470000F0B40E4B1B680C46C3F302234F
:100D4000C3F10705042D00D90425191D072901D277
:100D5000002300E0DB1E012606FA05F1491E2140B2
:100D600099409E40761E16403143F0BC04F041BDD0
:100D70000CED00E0064900F0070208684FF6FF039B
:100D8000184040EA0220034A104308607047000000
:100D90000CED00E00000FA052DE9F0470E460500D5
:100DA00065D0DFF81481D8F80000F7B200F00F002A
:100DB000B04207D288F80070D8F8000000F00F00A9
:100DC000B04254D128683D4C810712D5400703D565
:100DD000206840F4E05020602878000703D52068A0
:100DE00040F4604020602068A96820F0F0000843CB
:100DF00020602878C0072DD030496868083901285C
:100E000012D0022813D0032811D0096889070029BD
:100E10002DDA216821F0030101432160FFF71CFF57
:100E2000814641F2883A0EE009688903EFE70968D4
:100E30008901ECE7FFF710FFA0EB0901514502D94A
:100E40000320BDE8F0872068696800F00C00B0EB73
:100E5000810FEFD1D8F80010404601F00F01B142E8
:100E600007D90770006800F00F00B04201D00120E0
:100E7000E7E72878400705D52068E96820F4E050C6
:100E8000084320602878000706D52068296920F4E7
:100E9000604040EAC100206000F03EF82168084A46
:100EA000C1F30311515CC840064908600648006858
:100EB000FFF7FAFE0020C4E7003C02400838024079
:100EC000D25C0008FC060020F406002001480068FF
:100ED00070470000FC0600200448054900680968C6
:100EE000044AC1F38221515CC8407047FC060020CF
:100EF00008380240E25C00080448054900680968B7
:100F0000044AC1F34231515CC8407047FC060020DE
:100F100008380240E25C0008154810B5006810F07F
:100F20000C02144813D04110042A0FD0082A0ED105
:100F30000F4C241F2268236802F03F025B0207D592
:100F40002068C0F38810A0FB010106E0084610BD30
:100F50002168C1F38811A1FB00010023FFF730F9DC
:100F60002168C1F30141491C4900B0FBF1F010BDFB
:100F7000083802400024F4002DE9F84F04006ED038
:100F80002078DFF83C93C007A9F104054AD009F1A5
:100F900004000168C1F38101012908D00068C0F391
:100FA000810002280AD1D9F80000400206D528683D
:100FB000800337D560680028E1D033E06068B0F581
:100FC000803F10D0B0F5A02F286810D020F48030DA
:100FD0002860286820F4802028606068A8B1FFF7A6
:100FE0003BFE06460DE0286840F48030F4E740F40C
:100FF00080202860F7E700BFFFF72EFE801B6428E3
:1010000073D828688003F7D50CE0FFF725FE064665
:1010100005E000BFFFF720FE801B6428F0D8286899
:101020008003F7D42078DFF89C8280074FF0000A15
:101030003ED5A348001D016811F00C0F08D00068D0
:10104000C0F3810002280BD1D9F80000400207D478
:101050002868800716D5E068012800D112E02BE14E
:10106000E068B8B10120C8F80000FFF7F5FD0646BA
:1010700005E000BFFFF7F0FD801B0228C0D82868FC
:101080008007F7D52868216920F0F80040EAC10000
:1010900028600DE0C8F800A0FFF7DEFD064604E07A
:1010A000FFF7DAFD801B02281FD828688007F7D4D5
:1010B0002078000722D5824E83486169703671B16D
:1010C00001210160FFF7C8FD074604E0FFF7C4FDFA
:1010D000C01B022809D830688007F7D50EE0C0F899
:1010E00000A0FFF7B9FD074605E082E0FFF7B4FD79
:1010F000C01B02287DD830688007F7D420784007CD
:1011000068D5DFF8BCB100270BF13C0BDBF8000021
:10111000C0000BD4DBF8001041F08051CBF8001078
:10112000DBF80000012700F080500090674E306827
:10113000C00510D4306840F480703060FFF78CFD3B
:10114000009005E0FFF788FD0099401A022850D86A
:101150003068C005F6D55A4EA0686C3601280FD00D
:101160000528306810D020F001003060306820F091
:1011700004003060A068B8B1FFF76EFD00900FE08A
:10118000306840F00100F4E740F004003060F7E719
:10119000FFF762FD0099411A41F28830814266D81A
:1011A00030688007F4D50EE0FFF756FD009007E0A9
:1011B000FFF752FD0099411A41F28830814256D81A
:1011C00030688007F4D42FB1DBF8001021F0805193
:1011D000CBF80010A069C8B33949091D0968C1F3EB
:1011E000810102294AD00228504607D0C8F8600081
:1011F00000E03CE0FFF730FD04463BE04746C8F81E
:101200006000FFF729FD064605E000BFFFF724FD5B
:10121000801B02282BD828688001F7D4D4E9070165
:101220000843A16A2A4A490802EB0141626A41EA7D
:101230008211084394F82C1040EA0161C9F80010AB
:1012400001203866FFF708FD044606E036E000BFDF
:10125000FFF702FD001B022809D828688001F7D596
:101260002CE000BFFFF7F8FC001B022802D9032086
:10127000BDE8F88F28688001F4D41FE00128F7D07A
:10128000D9F80000E26900F48001914214D1226A89
:1012900000F03F0191420FD147F6C071626A0140F0
:1012A000914209D1A26A00F44031914204D1E16A2D
:1012B00000F07060884201D00120D9E70020D7E714
:1012C0000438024000004742800E47420070004050
:1012D0000000FFFF704710B5401EB0F1807F01D3C2
:1012E000012010BD4FF0E02460610F21601704F071
:1012F00080FA0020A06107202061002010BD10B5F9
:10130000FFF7E8FF10BD10B590F83C20012A22D06D
:10131000012280F83C20CA688C6822F44072224383
:101320004C6822F4806222430C6822F4006222435B
:101330000C6922F4805222434C6922F40052224369
:10134000C969002322F480420A4301684A6480F894
:101350003C30002010BD022010BD000070B590F898
:101360003C20012A32D0012480F83C40022280F83F
:101370003D2003685A689D6822F070060A6832436F
:101380005A60134B02689A4214D0B2F1804F11D0C8
:10139000104B9A420ED0104B9A420BD00F4B9A42F0
:1013A00008D00F4B9A4205D00E4B9A4202D00E4BFA
:1013B0009A4204D1496825F080031943916080F86E
:1013C0003D40002180F83C10084670BD022070BDF1
:1013D000000001400004004000080040000C0040F4
:1013E00000040140004001400018004010B5040016
:1013F00003D094F83D0010B107E0012010BD00209B
:1014000084F83C00204600F00DF8022084F83D00EE
:10141000211D206802F09EFF012084F83D0000207D
:1014200010BD000010B586B0044614216846FEF7D2
:1014300011FF13492068884220D112480021026818
:1014400042F001020260006800F0010005900D48C2
:101450001438026842F010020260006800F01000C8
:1014600005904FF4004000900220CDE901010120D9
:10147000CDE9031069460448FFF712FB06B010BD22
:1014800000000140443802400010024070B586B0B0
:10149000044614216846FEF7DDFE1749206888429D
:1014A00028D116480024016841F00101016001685B
:1014B00001F001010591016841F01001016000682F
:1014C000022500F01000059080200090CDE9015425
:1014D0000126CDE9034669460948FFF7E1FA4FF4D2
:1014E00078500090CDE90154CDE90346694605489E
:1014F000FFF7D6FA06B070BD000001403038024058
:10150000000002400010024070B5044690F83C0014
:101510000D4601280DD0012684F83C60022084F895
:101520003D0042B1042A18D0082A2AD00C2A4DD1F5
:1015300039E0022070BD206802F07AFF20688169DE
:1015400041F0080181612068816921F00401816115
:10155000206881692A69114311E0206802F098FF30
:101560002068816941F4006181612068816921F40A
:1015700080618161206881692A6941EA0221816173
:1015800024E0206802F0BAFF2068C16941F0080138
:10159000C1612068C16921F00401C1612068C1698D
:1015A0002A69114311E0206802F0DCFF2068C1695C
:1015B00041F40061C1612068C16921F48061C161A9
:1015C0002068C1692A6941EA0221C16184F83D604D
:1015D000002084F83C0070BD10B5040003D094F8DE
:1015E0003D0010B107E0012010BD002084F83C0050
:1015F000204600F00CF8022084F83D00211D2068F0
:1016000002F0A8FE012084F83D00002010BD7047C4
:1016100070B5044690F83C00012812D0012584F8EA
:101620003C50022084F83D00204602F0C3FF010038
:101630004FF0000007D084F83D5084F83C000120B2
:1016400070BD022070BD2168CA6822F04002CA60E5
:101650002168CA6822F48042CA6084F83D5084F848
:101660003C00002070BD70B5040004D094F839002F
:10167000002510B106E0012070BD84F838502046E6
:1016800000F022F8242084F839002068C16821F491
:101690000051C160204603F0EBF92068016921F494
:1016A000904101612068416921F02A01416120686F
:1016B000C16841F40051C160E563202084F839001D
:1016C00084F83A00002070BD10B586B0044614219D
:1016D0006846FEF7BFFD14492068884221D11348AF
:1016E0000021026842F010020260006800F0100061
:1016F00005900E481438026842F00102026000684A
:1017000000F0010005904FF4C06000900220CDE988
:101710000101032003900720049069460448FFF765
:10172000BFF906B010BD000000100140443802406F
:101730000000024002F0AEFF184C00BFD4F82001B8
:101740000068C0F3C00040B1144803F02BFAD4F88D
:10175000200100F0BFF803F0B5FDD4F820010068C7
:10176000C0F3C01010B10D4803F0BAFAD4F820014C
:101770000168C1F340110029E0D04068C1B20748B8
:1017800003F01AFA0088012804D00228D6D103F009
:1017900099FDD3E703F090FDD0E70000500500204D
:1017A000826801F4702122F470220A43826070473B
:1017B00008B541F48032C261C161C261C069009064
:1017C00008BD006A814301D00020704701207047A6
:1017D000012919D0042919D0102919D0402919D06C
:1017E000B1F5807F18D0B1F5806F17D006210C4A73
:1017F0001830525C10440268094BDB1D5B5C082109
:1018000099408A43026070470021F0E70121EEE72A
:101810000221ECE70321EAE70421E8E70521E6E7F6
:10182000F05C0008012919D0042919D0102919D019
:10183000402919D0B1F5807F18D0B1F5806F17D04D
:1018400006210C4A1830525C10440268094BDB1D1B
:101850005B5C082199400A43026070470021F0E771
:101860000121EEE70221ECE70321EAE70421E8E7A2
:101870000521E6E7F05C000810B501291BD004291A
:101880001BD010291BD040291BD0B1F5807F1AD066
:10189000B1F5806F19D006210D4B18305B5C1844F0
:1018A00003680B4CE41D615C73248C40A3438A40A5
:1018B0001343036010BD0021EEE70121ECE7022194
:1018C000EAE70321E8E70421E6E70521E4E7000071
:1018D000F05C000808B5016800914068009008BD00
:1018E00010B50446406802F02FF9A168086110BDE8
:1018F0000068012102F08EB910B5040031D0207EBD
:1019000001282ED1217B0020012904D002290DD0ED
:10191000032924D119E0A16881F82400012160681D
:1019200002F040F9E28AB4F90E1009E0A16881F8EA
:1019300024000021606802F035F9E28AB4F9101041
:10194000606802F0AEF840B909E0A168012081F8B2
:101950002400A068D4F812100161022000E00320E6
:10196000207610BD01230373C181C28203764376C2
:101970007047022303730182C28201210176002194
:1019800041767047006802F017B910B5406802F060
:10199000F1F8BDE8104002F00CB8407E7047806856
:1019A00000687047806840687047014601200B7BE3
:1019B000821E012B06D0022B09D0032B06D1B1F9D0
:1019C000121006E0B1F90E1003E010467047B1F9AD
:1019D00010100029F9DB70478068C0687047806884
:1019E00000697047027B0021012A01D1B0F90E1075
:1019F00008467047406802F0B1B8006802F003B9C9
:101A00008068B0F91E0070478068D0F81A007047EF
:101A10008068D0F81600704780E80E00002101733E
:101A2000C1810182C1820176704703220273418223
:101A30000914818201210176002141767047826874
:101A4000518280688182704710B504460068032186
:101A500002F0E0F8002801D00121217610BD0068D5
:101A6000072102F0D7B8406802F0A2B8014661F33E
:101A70000F0044F6E61211FB02F244F6E61311FBE6
:101A800023F10A4411444942CA13094BB2F5004FED
:101A900001DB590C03E019468A4200DB11B261F305
:101AA0001F40994203D148F2010161F31F40704782
:101AB0000080FFFF2DE9F0410546084600F052F88E
:101AC0000FFA85FC07B21CFB07F12E14051416FB58
:101AD00005F0081AC3134FF40040411E42428342EE
:101AE00001DB0B4604E0934201DA134600E01BB22F
:101AF000DFF838E063F30F04934201D16EF30F0473
:101B00001CFB05F316FB07F52B44DB13834204DAB9
:101B1000934201DA114600E019B2204661F31F40FA
:101B2000914201D16EF31F40BDE8F0810180FFFFBB
:101B300070B50446084600F015F814FB00F12214B5
:101B4000031412FB03F63144CE13294666F30F014A
:101B500014FB03F312FB00F0C01AC01360F31F4123
:101B6000084670BD10B500F50041890911F44074B4
:101B7000C0F387121649C2F1FF0316D0B4F5807F77
:101B80001CD0B4F5007F09D0B4F5407F1FD131F8E7
:101B9000133031F8121063F31F400DE031F81220BA
:101BA00031F8131062F31F400FE031F8122031F8C2
:101BB0001310524262F31F40494206E031F81330DD
:101BC00031F812105B4263F31F4061F30F0010BD48
:101BD0001C5A0008F8B50446DDE90670A161C4F896
:101BE000A8008C4608481E4615460090074B084A38
:101BF00021466046FEF798FC04F11C01204681E86E
:101C0000E00000F001FBF8BD151C00081D1C0008D9
:101C10000122000810B500F0F7FA10BD2DE9F043DD
:101C20008BB0002714469946884605468DF8047007
:101C30004A0906D00021521E03F057FB88B108F074
:101C40001F080126B8F1130F72D2DFE808F0740CF8
:101C50008D9C71719B9A99989796959471717171F9
:101C600074000B20CDE1217805208DF8080047296C
:101C700067D028DC0F295FD00BDC0F2972D2DFE898
:101C800001F055717155715B5B5B5B5B5B5B5B5B33
:101C90005B00172950D009DCA1F11000072861D2A0
:101CA000DFE800F04F4F60604A4A4A001D2940D0EB
:101CB00004DC182940D01C2954D13AE041293BD0FA
:101CC00046294FD13DE0652936D01EDC572933D057
:101CD0000EDC542930D006DC482932D04F292BD0D5
:101CE00053293FD128E0552926D056293AD123E05F
:101CF0005B2926D004DC58291ED0592932D11BE09B
:101D0000612919D064292DD116E0A1F1740015289C
:101D100028D2DFE800F00B1616161616272727160E
:101D2000162727272727272711111100627812E08D
:101D30004FE28DF804604EE26078A27800EB022258
:101D400009E06078A278237900EB0220E27812049F
:101D500002EB03620244284603F0C7FA8DF8040040
:101D600039E2FFE702204CE1217803208DF80800DA
:101D70008929F8D208E08DE111E2FFE1F0E1CEE13E
:101D80009DE174E148E13FE18A0000BF7A44526876
:101D900097440000240200005002000024020000CA
:101DA00024020000500200003A0200003A02000043
:101DB0003A0200003A0200003A0200003A02000033
:101DC0003A0200003A0200003A0200003A02000023
:101DD0003A0200003A0200003A0200003A02000013
:101DE0003A0200003A0200003A0200003A02000003
:101DF0003A0200003A0200003A0200003A020000F3
:101E00003A020000420400004204000050020000B8
:101E10003A0200003A0200003A02000024020000E8
:101E20006E0200006E0200006E0200006E020000F2
:101E30006E0200006E0200006E0200006E020000E2
:101E40006E0200006E0200006E0200006E020000D2
:101E50006E0200006E0200006E0200006E020000C2
:101E60006E0200006E0200006E0200006E020000B2
:101E70006E0200006E0200006E0200006E020000A2
:101E80006E0200006E0200006E0200006E02000092
:101E90006E0200006E0200003A0200006E020000B6
:101EA0006E0200006E0200006E0200005002000090
:101EB00050020000500200003A0200003A02000006
:101EC0003A0200003A020000240200005002000022
:101ED0003A0200003A0200003A0200003A02000012
:101EE0003A0200003A0200003A0200003A02000002
:101EF0003A0200003A0200003A0200002402000008
:101F0000500200006E0200003A0200003A02000097
:101F10003A0200003A0200003A0200006E0200009D
:101F20006E0200003A0200003A02000024020000A3
:101F30002402000050020000500200005002000085
:101F40005002000050020000240200003A0200008B
:101F50003A020000500200006E0200003A02000047
:101F60003A0200002402000050020000500200006B
:101F70005002000050020000500200005002000019
:101F80005002000050020000500200005002000009
:101F900050020000240200006E0200002402000033
:101FA0005002000050020000500200003A020000FF
:101FB0003A0200003A02000001AA284602F012FF8D
:101FC00000909DF80400002878D0012314E001AAB5
:101FD000284602F007FF00909DF804000028F3D087
:101FE000022309E001AA284602F0FCFE00909DF8B9
:101FF00004000028E8D00423D5E906046A46F0214D
:10200000F7E08DF80800E6E0217807208DF8080059
:10201000284602F096FEA1E6002003A90F54401CBA
:10202000C0B22028FAD3002005E00B18401CC0B233
:10203000DA701D2804D2D5F8A820125C092AF4D140
:10204000D5F8A810421D8A5C8DF80C20C21D0930FD
:10205000895C8DF80D10D5F8A810202303AA085C20
:102060008DF80E00B0E000BF8DF80460B6E0207976
:102070006179E37800EB012082B22078617800EB8F
:102080000120A178090401EB03610144284602F014
:102090008EFE63E620796179E37800EB012082B25D
:1020A0002078617800EB0120A178090401EB03613D
:1020B000084401B2284602F08AFE4FE694E006A8E2
:1020C0000090217807AB05AA284603F09BF8BDF9DC
:1020D0001C000A21C0EB0010800090FBF1F08DF88D
:1020E0000C00010A8DF80D10010C8DF80E10000E79
:1020F0008DF80F00BDF818008DF81000000A8DF85B
:102100001100BDF814008DF81200000A8DF81300BC
:10211000D5E90604082303AAF021A0475BE0E07993
:10212000227AA37800EB022082B26078267900EB55
:102130000320E37821781B0403EB0663184400EBCB
:10214000800040003C2390FBF3F003B26079A47957
:1021500000EB042000B20090284603F0C4F9FDE52E
:1021600020786178E27800EB012001B2A07800EBE2
:10217000022002B2284603F0ABF875E70C208DF878
:10218000080003948DF810901C4903A802F028FE63
:102190008DF80400F8B119480379026820E00020A6
:1021A00003A904E00A54401CC0B220280AD2D5F882
:1021B000A820125C002AF5D102E00F54401CC0B2E6
:1021C0002028FAD320230A46D5E90604F021A047A7
:1021D0004AE78DF808609DF8040028B100231A46EC
:1021E000D5E90604F02104E0D5E90604012302AA9A
:1021F000FF21A0470BB0BDE8F0830000C806002017
:1022000010B500F001F810BD10B504468069616A90
:102210008847802084F8AC00216AA069BDE810409E
:102220000847000001480068FFF7E7BBD40600201C
:10223000064810B50078002807D000F009F802F031
:10224000A7FBBDE8104003F017B810BD8C060020B6
:1022500010B50C4C2078012813D1608810B160882B
:10226000401E02E002F07CFA01206080A08810B1DC
:10227000A088401EA080E088002802D0E088401E90
:10228000E08010BD8C06002001480068FFF7DCBB31
:10229000D406002001480068FFF7E1BBD406002007
:1022A0002DE9F34F81B0594801F0AFFC574E00249F
:1022B000343E06F12C01347055480860554906F14A
:1022C00024080846C8F8001000F0D0FD03F052FBC7
:1022D000514800F0FEFA06F110094F4906F10C05CD
:1022E0004E48C9F8001028604D4801F011FFD9F898
:1022F00000104B4A286801F045FC4A4803F026FAD2
:10230000D8F800000090484B464A4848296801F038
:10231000BDFA474800F0DDFA464800F0DAFA05F168
:1023200008004349016000F1040A42494248CAF8E2
:102330000010F06101F032FB05F11C013F4808601C
:10234000F1693F4FC0E943713E4800F096FA05F14C
:1023500014003C49016005F124013B48086001F08C
:10236000EDF90020FEF700F94FF0010B87F824B0DB
:10237000286801F0E9FB3861286801F0E5FB0014EA
:10238000B88207F128002F1F2D4B38601F492A689B
:10239000FFF742FB286801F0E7FB0146002238689E
:1023A000FFF7E0FA0198396801602548D9F8001074
:1023B0004430016005F1080109684160DAF8001055
:1023C000C0E90214D8F800100161184941611449AC
:1023D000C0E9061413490162296841620B49816210
:1023E00014390968C162F169C0E90C1405F11C01D6
:1023F00084630968C0E90F1444648464C464046598
:102400000299086086F800B0BDE8FE8FC006002083
:102410009C040020440200201401002098010020A8
:10242000F8020020C002002020040020CC0100207F
:10243000400100206C0100205C040020000000200E
:102440002C070020340400208404002010B5B0F8CC
:102450000031002220F81310B0F80031A0F802314A
:102460005B1C9BB2A0F80031802B02D30023A0F8A4
:102470000031002330F913405B1C9BB22244802BB7
:10248000F8D3D31702EB5362D211A0F80421084607
:1024900010BD00210A4620F81120491C89B280296C
:1024A000F9D3A0F80021A0F802217047B0F9040187
:1024B0007047000070B58CB00024089409940A9409
:1024C000202168460B94FDF7C5FE2E482C490125B6
:1024D00001604FF480310561C0E90114047680F891
:1024E00020402949C0E90A140226C902C661C16018
:1024F00080F830404561FEF747FA08B172B6FEE752
:102500000895CDE9095408A91E48FEF797F908B1C6
:1025100072B6FEE70520CDE9080608A91948FEF7BE
:102520008DF908B172B6FEE70820CDE90005400438
:102530000294CDE9064003258DF8154004958DF8E9
:10254000144069460F480394FEF79AF808B172B632
:10255000FEE70920CDE9000669460A48FEF790F833
:1025600008B172B6FEE70620CDE9000569460548C8
:10257000FEF786F8002801D072B6FEE70CB070BDF9
:1025800000200140A40800200100000F70B58CB0AD
:102590000024089409940A94202168460B94FDF7BE
:1025A00059FE2A482849012501604FF48031056110
:1025B000C0E90114047680F820402549C0E90A14D6
:1025C000C902C561C16080F830404561FEF7DCF9A1
:1025D00008B172B6FEE708260896CDE9095408A9A5
:1025E0001A48FEF72BF908B172B6FEE7CDE900658F
:1025F0004FF480100294CDE9064003268DF8154073
:1026000004968DF81450694610480394FEF738F884
:1026100008B172B6FEE709200090022001906946D9
:102620000A48FEF72DF808B172B6FEE70620CDE99C
:10263000000669460548FEF723F8002801D072B667
:10264000FEE70CB070BD000000210140EC08002046
:102650000100000F00B587B014216846FDF7FAFDB0
:1026600016480021026842F010020260026802F07F
:1026700010020592026842F080020260026802F0D5
:1026800080020592026842F001020260026802F0D4
:1026900001020592026842F002020260006800F046
:1026A00002000590402000900548CDE901016946EF
:1026B0000448FEF7F5F907B000BD000030380240CD
:1026C000000011100010024008B5FEF7FFFB4FF4A8
:1026D000FA61B0FBF1F0FEF7FEFD0749081FFFF7B6
:1026E000DFFD03F009F9044B04481A1F0090012193
:1026F000101F02F013FF08BDD8060020B25C0008CE
:1027000030B597B014210FA8FDF7A4FD0024149450
:102710001C2168461594FDF79DFD202107A8FDF7B3
:1027200099FD3B4839494FF48075C0E900142021D8
:10273000816041F28241C0E903150121C0E905141D
:10274000FEF754FE08B172B6FEE73148FEF744FFCB
:1027500008B172B6FEE706200F90102010900FA966
:102760002B48FEF755FF08B172B6FEE7149414A982
:1027700027481594FEF7F2FD08B172B6FEE7602017
:10278000CDE9000402940394049405940022694660
:102790001F480694FEF7B8FE08B172B6FEE70422A1
:1027A00069461B48FEF7B0FE08B172B6FEE7082284
:1027B00069461748FEF7A8FE08B172B6FEE770201A
:1027C000009041F2814001900C2269461048FEF7CA
:1027D0009BFE08B172B6FEE74FF400600790401010
:1027E000CDE9080543200A904FF48050CDE90B0451
:1027F00007A907480E94FEF786FD08B172B6FEE7FA
:102800000348FEF743FE17B030BD00000000014052
:102810003409002010B50446007808B1002014E007
:1028200094F8260000F05CFE0146A0F57F40FF38DA
:1028300008D0208B228A0346401E02FB0011B1FB08
:10284000F3F02082204600F02AF8E08280B210BD2A
:10285000002101827047017811B1808A00B270476F
:10286000018A026A8A1AB0F91E10808C5143CA1775
:1028700001EB124100EB2140F0E710B5044600786F
:1028800020B10020E082608A208210BD201D00F06F
:1028900085FE84F826002046FFF7DAFF10BD018A86
:1028A000428B914201D908207047828B914201D21C
:1028B00000207047C08A7047B0F922007047B0F915
:1028C00006007047408B7047B0F904007047008BDA
:1028D0007047018881804188C180018C418400213A
:1028E0008160816270478160704741847047C18018
:1028F0007047818070470000F0B5B0F904200026D1
:10290000B0F91450B0F91640B0F906304A4353B14B
:1029100087684B43F91808D5002F0BDD002B09DD24
:102920006FF0004106E000210DE0002F02DA002BDD
:1029300000DA0F49C3688B4202DB03698B4202DD78
:102940001946836000E08160837F077F41FA03F3CB
:102950003A411A44AA4202DDAE1A2A4603E0A242D4
:1029600001DAA61A22463144816010B2F0BD00009F
:102970000100008070B50546D0F80C01C168D0F8A0
:10298000160011FB00F211FB3020C11700EB1140C3
:102990000414D5F8100102F029FED5F808114843B7
:1029A0004FF4167190FBF1F0444304EB44004000F7
:1029B0000A2190FBF1F1C81701EB104001142846E1
:1029C000BDE87040FFF742BDC169084770B50446D5
:1029D000002511B1012909D013E000F0E7F8B4F89F
:1029E000520008E021692046884709E0B4F8440015
:1029F00030B1401E80B2A4F844000028F2D000E0BC
:102A00000125284670BD4268104730B4028E0BB2D3
:102A100053430A14B0F850104A4352005242D4189B
:102A2000A2EB030304EBD47403EBD37364104FEAFB
:102A300063034FEA910147D5002B15DA042280F891
:102A40003A20E21AD51702EB953201EBA241DA17D0
:102A500003EBD23201EB6243E21704EBD232A1EB7B
:102A600062448487C1875EE0002A15DC032480F875
:102A70003A40D41AE51704EB953401EBA441DC1776
:102A800003EBD433D41701EB634302EBD432A3EB53
:102A900062448487C38714E0022380F83A30A31A83
:102AA000DD1703EB953301EBA341E31704EBD333BD
:102AB000A1EB6344D31702EBD33204EB6243838769
:102AC000C487A0F8401048E0002B15DB012280F8F5
:102AD0003A20E21AD51702EB953201EBA241DA1740
:102AE00003EBD23201EB6243E21704EBD23283876D
:102AF000A1EB6244C1872EE0002A17DC052380F891
:102B00003A30A31ADD1703EB953301EBA341E3172A
:102B100004EBD333A1EB6344D31702EBD3328187A9
:102B200004EB6243C487A0F8403016E0002480F82C
:102B30003A40D41AE51704EB953401EBA441DC17B5
:102B400003EBD43301EB6343D41702EBD432818718
:102B5000A3EB6244C387A0F8404089B29AB2418691
:102B60008286A3B2C386B0F84E40012C1BD1B0F9C7
:102B70004840002CB0F8544001DD214400E0091B1E
:102B80004186B0F94A100029A1B201DD114400E0EC
:102B9000511A8186B0F94C100029A1B201DD194407
:102BA00000E0591AC186816930BC0847816808472E
:102BB000816F91F88F20022A0DD1CA68098B090410
:102BC0009161826F1169928B12048A61816F4A69E7
:102BD000098C09049161012180F874104630704716
:102BE0002DE9F0470446806F002640F2555885686D
:102BF000E6652666666684F87360286A20EA08003F
:102C000028623449616034490327A16184F87270F5
:102C1000204684F83A7000F07BFBA06F04F1730348
:102C200004F1380190F88E209A468946284602F031
:102C3000CFFE204600F043FB84F8736027496160B3
:102C400084F87260204684F83A6000F061FBA06F5F
:102C50005346494690F88E20284602F0B9FE204699
:102C600000F02DFB54F85C0FC10844F82819E06A05
:102C7000C108E162206BC1082163194944F8301C86
:102C8000184944F81C1C01212846FEF7A1FD10211B
:102C90002846FEF79DFD4FF4807631462846FEF724
:102CA00097FDA08F6863A08FA863A08FE8630121C0
:102CB0002846FEF7B7FD10212846FEF7B3FD314642
:102CC0002846FEF7AFFDA771286A40EA080028628F
:102CD000BDE8F087E12D000851320008312E0008D0
:102CE000E92C00086B320008F0B5826F9268136A15
:102CF00023F48053136290F83A402422836F02EB4E
:102D000084029A5815684FF6FF7202EA450C3C257A
:102D100005EB84055B591B68304E02EA4305721CC3
:102D20007742530C062C4ED2DFE804F01632320301
:102D30000316C46DA4EB0C04B44201DC0A8004E069
:102D4000BC4201DB0B8000E00C80046E641BB442CB
:102D500036DDBC4230DA35E0046EA4EB0C04B4423C
:102D600001DC4A8004E0BC4201DB4B8000E04C8087
:102D7000446E641BB1F902502C446442BC4201DB36
:102D80000B8020E0B44201DC0A801CE00C801AE0D9
:102D9000C46DA4EB0C04B44201DC0A8004E0BC4224
:102DA00001DB0B8000E00C80446E641BB1F9005025
:102DB0002C446442BC4201DB4B8004E0B44201DCA1
:102DC0004A8000E04C800A8820F8482F4A884280D8
:102DD0000A884988114449428180F0BD0080FFFF84
:102DE00010B5826F9268136A23F48053136290F8CF
:102DF0007320102A18D290F872302424826F04EBCA
:102E00008303D258126850F85C3F3C241A44026095
:102E1000837DC26904EB8303D258126843681A4465
:102E20004260C27D521CC27500200880488010BDDF
:102E300010B5826F9268136A23F48053136290F87E
:102E40007320102A0ED290F872303C24826F04EB6B
:102E50008303D258126850F8643F1A440260C27B60
:102E6000521CC27300200880488010BD70B5836F6B
:102E7000D3E901411A680B6823F001030B60836FEB
:102E800093F8903033B16FF080030B61CB6843F05F
:102E90008003CB604B6943F001034B61836F93F870
:102EA0008C50022D03D090F8463083B113E093F894
:102EB0008D50012D0BD193F88E30032B07D10123B8
:102EC0000B634B6943F001034B6103230B63B0F8C1
:102ED00070305B1E4B620B6A40F255552B430B6200
:102EE000184E194B3501B142D96804D141F00101A6
:102EF000D960856605E041F00201D9604FF4F01118
:102F00008166916841F001019160A16841F0010181
:102F1000A1606FF004011160516841F080015160BF
:102F2000D16A21F47001D162916B21F44011916357
:102F3000A16B21F44011A1630021C566A0F84E10D9
:102F400070BD000000000140002004E090F87420F3
:102F50000021012A03D14021002280F87420084674
:102F60007047000070B50546806F846895F847008B
:102F7000012862D1602201212046FEF77DFC206AF3
:102F800040F001002062A86F90F88F00012802D065
:102F9000022804D007E0206A40F0040002E0206A22
:102FA00020F004002062B5F87000400860636022E1
:102FB00010212046FEF760FC206A40F010002062DD
:102FC000A86F90F88F00012802D0022804D007E0F3
:102FD000206A40F0400002E0206A20F040002062B9
:102FE000B5F870004008A06360224FF4807120465D
:102FF000FEF742FC206A40F480702062A86F90F8CF
:103000008F00012802D0022804D007E0206A40F493
:10301000806002E0206A20F480602062B5F87000D1
:103020004008E06305486860054868610548E86055
:103030000548A860002085F8470070BDE92C00080D
:103040006534000811330008BF32000870B505462A
:10305000806F846895F84700F0BB6022012120460C
:10306000FEF70AFC206A40F001002062206A20F08E
:103070000400206200206063A86F90F88F00012890
:1030800002D002280DD019E0102211462046FEF78A
:10309000F3FB206A20F010002062206A40F040001C
:1030A0000BE0202210212046FEF7E6FB206A40F0CC
:1030B00010002062206A20F04000206270224FF44D
:1030C00080712046FEF7D8FB206A20F480702062D1
:1030D000206A20F4806000E000E02062054868601B
:1030E000054868610548E8600548A860012085F842
:1030F000470070BD3D3100080D3200087D310008E9
:10310000BF32000810B5826FB0F870300446926884
:103110004B43190C41865163032180F83A104FF458
:1031200080511046FEF74DFB00B10120218F01298F
:1031300002D101200021218710BD000010B5826F4F
:103140009268136A23F48053136290F83A303C2457
:10315000826F04EB8303D2581268006E524200EB78
:103160004200054A904202DD520C904200DB1046BC
:103170000880488010BD00000180FFFF30B5816FDE
:103180006FF0010289680A610B6913F0010FFBD02F
:103190000A6101234B63B0F870305B1F0B640B694D
:1031A00013F0010FFBD00A614B6C43F480634B6456
:1031B0004B6C43F400434B64836F93F88F40022CB5
:1031C0001ED10C6A40F255552C42DC680BD09B692D
:1031D000A361846F2369E4699C61806F4369008CFB
:1031E000000498610CE01B8B1B04A361836F1C69B6
:1031F0009B8B1B04A361836F58691B8C1B04836129
:103200000A61C86840F00100C86030BD816F0022CB
:1032100089684A63921E0A610B6913F0010FFBD0A3
:103220000A614A6C42F400424A64816F91F88F202F
:10323000022A0CD1CA6889699161826F1169928BE7
:1032400012048A61816F4869098C090481617047A1
:103250004FF48011C16690F8721080F83A10B0F8FF
:103260007010491E89B200F022B9F0B4866F818FC8
:10327000B0F87020B6F88650531AC48F9BB2AB4298
:1032800004D9032180F83A1091B213E00C1BA4B2C8
:10329000B4EB430F03D9B6F88820891A0BE0294410
:1032A00089B28A4208D84FF40012C266B0F8702082
:1032B000C1EB4201491E89B2F0BC00F0F8B8816F41
:1032C0008968CA6822F00102CA60002280F84220A0
:1032D0004A6C22F400424A64826F92F88F30022BCB
:1032E0000DD1D368128B12049A61826F1369928B8D
:1032F00012049A61806F4269008C000490616FF043
:10330000010008610A6912F0010FFBD008617047E3
:1033100070B50546806F0021846885F84210B5F8C5
:10332000700040086063B5F870004008A063B5F80D
:1033300070004008E063B5F87000401F20648E1EE6
:103340002661206910F0010FFBD02661606C40F40B
:1033500080606064606C40F400406064A86F90F826
:103360008F00022820D140F255512046FEF729FA5D
:1033700058B1A96FC86889698161A96F0869C9696D
:103380008161A96F4869096A0DE0A86FC168008B67
:1033900000048861A96F0869898B09048161A96F9C
:1033A0004869098C090481612661E06840F00100E8
:1033B000E06070BD2DE9F0410446806F90E8E000C8
:1033C000296801F00C01082901D031B114E0286806
:1033D00000F00C000C28FAD10EE0B0F88400796AF5
:1033E0008142FCD3286800F00C00082804D128682A
:1033F00000F00C000C28FAD1A86820F44010A86056
:10340000B06820F44010B06094F83A105422A06FD5
:1034100002EB81014058A86394F83A106C22A06F27
:1034200002EB81014058B0634FF4801841462846B2
:10343000C4F86880FEF7B4F93046A16EFEF7B0F923
:10344000386A40F480503862E06EA9680143A96090
:10345000E06EB1680143B16004F14600C4F86C80CD
:10346000BDE8F081816F0122896880F84220D21E78
:103470000A6100234B638B63CB630B6913F0010F6D
:10348000FBD00A614A6C42F400424A64816F91F8B1
:103490008F20022A0AD1CA6889699161826F1169F5
:1034A000D2698A61806F4169006A8861704710B58E
:1034B0000446806F628E80684263A28E8263E28ED1
:1034C000C26301644FF48051FEF77BF900B1012023
:1034D000218F012902D101200021218710BD000088
:1034E00070B51C494FF4007451F82020156812790A
:1034F00002EB4203092A03D8260446EA035302E0FA
:10350000154E06EB03531A434FF4407393FAA3F39B
:10351000B3FA83F3DC4005EB8403DC6A02F01F029C
:1035200024F01F041443DC6251F820201268D36C8D
:103530000123520102F18442C2F8783151F820008F
:1035400000680168C1F340010029FAD0C06C80B264
:1035500070BD0000C4070020000020FE70B50D4CB7
:103560006078012814D12078FFF7BAFF6080014607
:1035700002206070084A207852F83030002B07D0C3
:10358000002502EBC00265705268BDE87040184724
:1035900070BD0000DC060020D4070020F0B5FF233A
:1035A000384C002254F82210E1B10D790679B54269
:1035B00005D109680568A94201D113460422521CAD
:1035C000D2B2042AEED3042B5AD22E4A0021103252
:1035D00044F8230042F8331001688A6812F0010FA2
:1035E00004D019E0042BEAD91346E8E74A6822F030
:1035F00020024A6001686FF002020A6001684A68AE
:1036000022F080024A6001686FF004020A600168DB
:103610008A6842F001028A600168CA6A22F4700274
:10362000CA62017904684FF00075092901EB410273
:1036300002D845EA025202E0134E06EB0252114351
:10364000826895FAA5F501F00070B5FA85F5E840B5
:1036500004EB8000C4684FF0F87595FAA5F601F008
:10366000F871B6FA86F621FA06F60727B74095FAFA
:10367000A5F5B5FA85F5E940BC438A401443C4601A
:103680001846F0BDC4070020000020FE10B5D0E9A8
:1036900002134269012B04D90469A3F101032144F7
:1036A00005E005D141684FF0000301FB02F1C36062
:1036B000816091FBF2F010BD2DE9F05F04460E46EB
:1036C000806861695FEA020A90FBF1F84FF0010B34
:1036D00012D0A6EB0800814602F0AAF80746404641
:1036E00002F0A6F80546304602F0A2F8AF420CD22E
:1036F00087420DD238460BE0304602F099F86061FF
:103700007043A0600020E06014E0854200D22846AB
:1037100000FB08F16061C4E9016121684FF47A722D
:1037200001FB0AF1B1FBF2F1491C09FB00F292FB2B
:10373000F1F0E16020615846BDE8F09F0021816012
:103740004160C16001610121416170470146002073
:10375000C968002900D1012070472DE9F047D0E960
:103760001A89C180002780F8557080F8587080F859
:103770005370044600F10C0580F854700E4648461C
:1037800001F0CEFF0021404600F00CFA608810FBEB
:1037900006F001B2484602F014F8002211464046F5
:1037A00000F07FF92A88A88810FB06F001B2404695
:1037B00000F077F92A88688810FB06F001B24846C5
:1037C00001F0C8FF2888218848434FF47A71B0FB84
:1037D000F1F0401CA080A868A06084F85770BDE894
:1037E000F08770B504468088012520B1401E000492
:1037F000000CA08027D1A06820B38188E28811FB4B
:1038000002F1028809B2A06E00F04BF9A068E288CC
:10381000418811FB02F1028809B2E06E01F09AFFC3
:10382000A1682288088850434FF47A72B0FBF2F006
:10383000401CA0808868A06094F85800401C84F860
:10384000580000E00025284670BD0146002091F890
:10385000582091F849108A4200D30120704790F80F
:103860004800704701EB410100EB810080897047FF
:1038700001EB410100EB8100B0F90E00704701EB54
:10388000410100EB8100B0F91000704770B500F104
:10389000680C049E8CE84E00002480F8544000F12F
:1038A0000C05214680F8554002E0AD68641CE4B286
:1038B0000DB1052CF9D304EB440200EB82029160B8
:1038C00080F848400188642251434FF47A72B1FB7A
:1038D000F2F180F8561070BD01EB410100EB810060
:1038E0008281704701EB410100EB8100C28170478A
:1038F00001EB410100EB81000282704770B5044684
:1039000090F82600FFF7ECFD0246A0F57F40FF3857
:103910001ED094F82510206A002320F811201846A4
:10392000218B05E0256A35F81050401C2B44C0B2AD
:103930008142F7D8B3FBF1F0E080A28094F8250033
:10394000491E884201DA401C00E0002084F825006E
:10395000204600F002F8208170BDC188428B914260
:1039600001D902207047808B814201D20420704728
:1039700000207047418B828B11444A08002104E0EB
:10398000036A23F81120491C89B2038B8B42F7D8B4
:103990008280C280002180F82510704710B504464F
:1039A0000C30FFF7FBFD84F826002046FFF7E2FF0E
:1039B00010BDB0F90C007047B0F904007047B0F9C1
:1039C00010007047B0F90C10B0F91400C1EBC13110
:1039D00091FBF0F000B2704770B5B1F900600125BD
:1039E000C47800230278002E02DA714289B200E026
:1039F0000988868A8E4200D20123C68A8E4200D967
:103A00000123B0F91210002902DA494289B200E01C
:103A1000418A068B8E4200D323B1A24205D2521CAA
:103A2000D2B202E0A24200D20022A24200D100257E
:103A30000270284670BD70B50178054641B16C68CA
:103A4000E868012806D9AA69A0F10100144407E03A
:103A5000AC68F5E705D168884FEA00444FF00000F4
:103A6000E860012905D0E01704EB10400014AC60B9
:103A700070BDE01704EB104006146869FFF799FF6A
:103A8000301A01B22869FEF737FF0104C5E9014188
:103A900070BD0178012903D100690021FEF723BF21
:103AA00070472DE9F0410446007817460D4601267F
:103AB00060B16068C11700EB11400114E08BA842AF
:103AC00015DBB4F92400A84211DC12E0204600F016
:103AD00053F80146E08CA84205DAB4F92800002624
:103AE000A84204DC23E0B4F92800A84208DD00263F
:103AF0001DE0208CA84203DDB4F92200A842F6DBC9
:103B00006FB16580A08B4FF47A727843B0FBF2F00E
:103B1000401C691A0904E06091FBF0F006E021788E
:103B20002804012906D0A0600020E060A061304692
:103B3000BDE8F0816060F7E710B504464069FFF723
:103B400038FF0004606010BD0146C28D098E62F32B
:103B50000F0061F31F407047C08B70474068C1176A
:103B600000EB114000147047B0F92C007047B0F919
:103B700024007047406970478068C11700EB11400E
:103B800000147047C0E9041290F82A100170818D6A
:103B900009044160C18D0904816000214180C16038
:103BA0008161704701700021C160704741617047B9
:103BB0000021C16081617047027800210B2A04D185
:103BC000092101700021818001210846704710B54C
:103BD000448803780C439443448082880A4382805B
:103BE0000A2B05D014B10A2101700B46184610BDEE
:103BF000002CFBD10B2101700B46F7E78188408830
:103C000041EA004070470078704700210170418010
:103C10008180704710B502780024152A59D2DFE858
:103C200002F00D144C24404A4C4F525558580B1B6F
:103C30001E212F323D47390079B34AE0032954D081
:103C4000012952D00C2950D047E007294DD00D2929
:103C50004BD00E2949D03CE00E2946D02DE00F294B
:103C600043D02AE0022940D027E007293DD010297F
:103C70003BD0042939D0112937D0012935D028E08B
:103C8000112932D019E012292FD007292DD014295B
:103C90002BD01EE0122928D00FE026E0042924D0E2
:103CA0000BE0132921D007291FD005291DD010E0D2
:103CB00004291AD0F7E7062917D0072915D008E0FC
:103CC000082912D005E009290FD002E069B10C29BA
:103CD0000BD0032907D0012905D0072903D00022E2
:103CE0008021FFF774FF204610BD01240170FAE720
:103CF00070B5343014460D460646FEF7E5FD2880C3
:103D00003046FEF7DCFD208070BD006800213430B5
:103D1000FEF7E9BD30B590F8F44090F80F11E3B22A
:103D200000EB430390F80E21B3F97430D0F808513A
:103D3000511A2B4410D02144914200DB891A00EB28
:103D40004101B1F9741090F82021591A41FA02F298
:103D5000C281C0F8081130BDB0F90C11F3E70000C2
:103D60002DE9F0030024A44690F80E51A046224607
:103D7000A1462646234606E000EB43075B1CB7F945
:103D80007470DBB23C44AB42F6D394FBF5F30024F1
:103D900009E000BF00EB4407B7F97470FF1A07FB96
:103DA00007CC641CE4B2AC42F4D39CFBF5F5B0F84C
:103DB000107103FB03F47C43E71704EB5764E41131
:103DC000A54201DA4FF00109448B5C4383786343D9
:103DD000C46993FBF4F3447893FBF4F30B80838181
:103DE00080F8F59090F804514C46012D20D0012622
:103DF00090F8F820C2B1724214424FF0000211D183
:103E000090F8F7305B1CDBB280F8F73090F8174180
:103E1000A34209D380F8F720C1780170BDE8F00310
:103E20000020704780F8F720BDE8F003FFF7D4BD0D
:103E3000002B00DA5B42B0F81A519D4220DDB0F849
:103E4000702012FB02F5B0F8722012FB0258C3EB8F
:103E5000C332B0F9143092FBF3F390F819215A43AE
:103E6000D51702EB956292115A43D31702EB936375
:103E700090F818519B1103FB1523984500DD01268E
:103E800080F8F960C0E93F82B2E72DE9F04FB0F960
:103E90002E300446856EC3EBC33093B0854201DDFE
:103EA000A06604E0A3EBC332954200DCA266A26EDA
:103EB000B4F81E5196462A41E66E12B2864205DCDF
:103EC000A3EBC330864201DDE06E00E0E0660590C2
:103ED000284103B2B4F92C00276EC0EBC035AF42C5
:103EE00001DD256604E0A0EBC036B74200DC2666A3
:103EF000666EAE4201DD656604E0A0EBC03086422E
:103F000000DC606694F81C71256E888845FA07FA13
:103F1000AAEB0006606EB1F808C083463841CF882E
:103F2000B1F90080B1F902100CFB08F80CFB01FCA0
:103F30004FEA2C49CDF83090B4F82090C71B19FBFC
:103F40000AF1B4F822C0691A1CFB06F5CDF83CC092
:103F5000B4F828C029441CFB18F5CDF838C0B4F8D3
:103F600024C00D441CFB02F1691ACDF82CC001914C
:103F7000B4F826C0E2461CFB06F194F832800EEB42
:103F8000010CB4F92A5043FA08F105FB01F6B4F923
:103F90000E1006FB01C6029619FB00F6DDF83CC0C8
:103FA000ABEB06001CFB07F6DDF838C0DDF83090FF
:103FB00030441CFB09F6DDF82CC030441CFB03F632
:103FC000A0EB06091AFB07F0059E304442FA08F6FA
:103FD000754301FB1505B4F92401002801DB01201C
:103FE00001E04FF0FF30A4F87020A4F8723012FB0B
:103FF00000F613FB00F04742B4F90400FDF7B2FDF0
:1040000010FB26F110FB07F040F3CF3041F3CF3126
:10401000411A04F13400FEF76FFC208294F8F4108A
:1040200094F80E21491CC9B28A4200D1002104EB48
:10403000410232F8746FA4F80C61108084F8F41017
:10404000A188084400B2A080019921660299C4E9C0
:104050001991E56613B0BDE8F08F30B40021016618
:1040600041668166C1668180C18180F8F61080F862
:10407000F71080F8F81080F8F910C0F8FC10C0F8BC
:104080000011C0F8081180F8221180F8231190F86F
:104090000E31002205E000EB4204521CA4F874101B
:1040A000D2B29A42F7D3024600F8F41F018330BC23
:1040B000002102F13400FEF716BC0068012180F8EF
:1040C000221170470068012180F8231170470146D2
:1040D00031F8702F498862F30F0061F31F40704779
:1040E000D0F80001704790F81C21036E406E134118
:1040F00063F30F01104160F31F4108467047D0F889
:10410000FC007047438C0B80C08C1080704700000F
:1041100070B5044690F8160184F8F600012084F882
:10412000040100256586B4F92E200F4991FBF2F1B8
:1041300009B206E001EBD171638E491040005B1CAF
:1041400063860029F6D1208612FB00F042F6BE01FC
:1041500090FBF1F060852046FFF77FFF04F134000B
:10416000FEF7B7FB658270BD5EEA0F00F0B5A0F800
:10417000241190F823210025012A01D1B0F90C1057
:1041800090F8222100230126012A36D0B0F90C2014
:1041900012FB01F4002C37DD002A01DA524212B280
:1041A000002901DA494209B290F8124114FB01F4E6
:1041B000E71704EB177490F8137144F30F1417FB0F
:1041C00001F1CF1701EB177190F8F57041F30F1162
:1041D000012F17D1B0F814C197B2674512D98A429E
:1041E00010DBA2420EDC90F8F610491CC9B280F830
:1041F000F61090F81621914206D380F8F860012558
:10420000037001E080F8F6302846F0BD006890F8B1
:10421000F50070474184C284704700213430FEF7B6
:1042200062BB70B5343015460446FEF762FB294682
:104230002046BDE87040FEF75ABB000010B5084CA0
:104240002078022805D1FCF70DFDFDF758F8002075
:104250002070C0B2401C2070BDE81040FDF7E8BFE0
:10426000E006002030B593B030216846FBF7F2FF3E
:1042700014210CA8FBF7EEFF1D480025016841F052
:1042800080510160006800F0805011901948016869
:1042900041F4804101600068022400F480401190E4
:1042A00001200090000401908001CDE9064008AA99
:1042B0000420A82182E813000B906846FCF75CFEFE
:1042C00008B172B6FEE70CA90F2081E831004FF467
:1042D000A0500F904FF48050109005210CA8FCF7CF
:1042E0005BFD002801D072B6FEE713B030BD0000C0
:1042F00040380240007000400548016841F47001F8
:10430000016003494FF00060803908607047000089
:1043100088ED00E0084810B5806F80680169C1F33E
:10432000C01129B16FF0800101610348FEF740FC24
:10433000BDE81040FDF78CBF4402002004486FF038
:104340000101806F806801610148FFF733B8000008
:1043500044020020F0B50268254C264D264E274F1A
:10436000274B4FF0804CA04209D0604507D0A842AF
:1043700005D0B04203D0B84201D0984204D122F017
:10438000700E4A6842EA0E02A0421BD0604519D066
:10439000A84217D0B04215D0B84213D0984211D0DD
:1043A000184DA8420ED0184DA8420BD0174DA84268
:1043B00008D0174DA84205D0164DA84202D0164D80
:1043C000A84203D122F44075CA682A434D6922F0FD
:1043D00080022A4302608A68C2620A688262A0423E
:1043E00001D0984201D10969016301214161F0BD09
:1043F000000001400004004000080040000C0040A4
:1044000000040140004001400044014000480140D8
:1044100000180040001C00400020004010B58468D7
:1044200042EA032224F47F440A432243826010BDFF
:10443000F0B5026A22F001020262036A42688469EE
:10444000124E24F073050C682C4323F002058B6890
:104450002B430D4DA84201D0B04205D123F00807EF
:10446000CB683B4323F00403A84201D0B04205D1FE
:104470004D6922F4407215438A692A43426084617F
:10448000496841630362F0BD00000140000401403F
:10449000F0B5026A22F010020262026A436884697F
:1044A0000D6824F4E64444EA05248D6822F02002D5
:1044B00042EA05120F4D104EA84201D0B04206D17B
:1044C000CF6822F0800242EA071222F04002A8429E
:1044D00001D0B04207D14D6923F4406343EA85031C
:1044E0008D6943EA850343608461496881630262A0
:1044F000F0BD00000000014000040140F0B5026A78
:1045000022F480720262026A4368C46922F4007273
:1045100024F073050C68124E2C438D6842EA052284
:104520000E4DA84201D0B04206D1CF6822F40062FD
:1045300042EA072222F48062A84201D0B04207D1A9
:104540004D6923F4405343EA05138D6943EA05138B
:104550004360C4614968C1630262F0BD000001406C
:104560000004014030B5026A22F480520262046AFB
:104570004268C3690D6823F4E64343EA05238D6866
:1045800024F4005444EA0534084DA84202D0084DF2
:10459000A84204D14D6922F4804242EA8512426069
:1045A000C36149680164046230BD0000000001403D
:1045B0000004014010B503689A6822F070044A684C
:1045C000224322F007040A6822439A604A6812F0E4
:1045D0000F0F30D11211082A2DD2DFE802F02C2C57
:1045E0002C2C0B2127040B69D1E902210068FFF76D
:1045F00015FF20E00A68052A10D00268136A146AC1
:1046000024F00104146202689469096924F0F0043A
:1046100044EA01119161006803620CE0012010BDC1
:104620000A698968006800F008F804E00A69896886
:10463000006800F013F8002010BD10B5036A046A8A
:1046400024F001040462846924F0F00444EA0214B2
:1046500023F00A020A438461026210BD10B5036AA6
:1046600023F0100303628369046A23F4704343EA6E
:10467000023224F0A00343EA01118261016210BDFD
:10468000034900208988002900D1012070470000DB
:104690008C060020064810B50068FEF710FE04489E
:1046A00000228021BDE810401030FFF790BA0000D2
:1046B000B00600207FB5254C0025D4F81A000090E4
:1046C00023480078132809D1214E361F3068FFF7A0
:1046D0003DF818B93068FEF7D9FF2082FBF776FF66
:1046E000012815D01B48FFF7B0F806466068019016
:1046F00017483438C06900F07EFFADF808006946FD
:104700001548FFF7C2FB1448FFF704FB36B108E079
:10471000002201210E48FFF75AFA14E00E48FFF775
:104720007CFD0B48FFF76FFA042803D0132801D053
:10473000052808D10848FFF73FF9ADF80C0003A998
:10474000064800F0A2FF04B0284670BD2C070020E8
:10475000C0060020CC010020F8020020C00200208A
:104760002DE9FC470020ADF8000069468348FFF7BB
:10477000F7FADFF80C828146D8F80000FEF7FAF865
:1047800008F10C00FFF73FFAA8F120073E1D7D4C11
:10479000C01E07F11C05112842D2DFE800F00943D2
:1047A000A5BBCBDBE141414141414118222A8700B1
:1047B0003868FDF7FAF801467348FEF7CEFF28681F
:1047C000FEF750FE142000F03DF91021D0E0FFF775
:1047D00057FF002824D000212868FEF7F7F81121A0
:1047E000C6E001212868FEF7F1F8002818D0122150
:1047F000BEE0012084F8240064493068FFF7D6F950
:104800005E48FFF72AFC5E4804210C30FFF702FAED
:10481000002805D00020FBF7A7FE2868FEF778FDEA
:10482000BDE8FC875848FEF7DCFFB8B33068FFF7F7
:1048300002F960F30F05A08A60F31F45256101A905
:10484000524800F0DAFE5048FEF7FFFF0028E7D09C
:10485000BDF904104948FFF789FC054601464B485D
:1048600000F0B6FF002DDBD04448FFF7A5F8014665
:104870006068FDF71FF9424D064608352868FEF7C7
:104880005DFFB4F9101000222868FEF715FF31B261
:1048900000222868FEF710FF132169E0FFE738487F
:1048A000002210210C30FFF792F9C8E73648FEF7D6
:1048B00098FFB0B101A9354800F09FFE0546334886
:1048C00000F094FF2843ABD02D4D183D2868FDF72C
:1048D000F9FFB4F9101041432868FEF704F80521E8
:1048E00046E00022102120E024493068FFF75EF9FD
:1048F0000020FBF7C3FE0020FBF71EFE2048062128
:104900000C30FFF787F93068FFF716F93868FCF7C5
:10491000F3FF85E73868FCF7EFFF0020FBF70CFE9C
:10492000B9F1000FF5D10022202115480C30FFF716
:104930004EF975E72868FEF7C2FC0020FBF714FE6D
:10494000D8F80000FDF7A5FD4FF4487000F080F89E
:1049500008210DE000F082F80028DAD0092107E0F4
:104960000A493068FFF722F9084800F0D9FE002113
:1049700003480C30FFF74EF952E70000F802002020
:10498000B40600202C070020CC010020C00200202B
:10499000064810B50078012806D1002000F008F87C
:1049A000BDE81040FEF7DABD10BD00008C06002007
:1049B000F8B50446214800680090214850F82400CA
:1049C000FDF728FF1E4F3DF814103F1D00EA0106B9
:1049D00057F82400FDF7F8FF40EA060544B9A7F1AF
:1049E0002400C069FEF78AFFBDF8001008400543A7
:1049F000E84382B2124804EB4401143000EB410654
:104A000029463046FFF7E3F83046FFF7FCF80A285E
:104A100006D00B2803D157F82400FEF7C7F8F8BDDD
:104A200057F82400FEF7C2F82046FBF79DFD044826
:104A3000083050F82400FDF72CFDF8BDB05C0008EC
:104A4000AC06002001498880704700008C060020D9
:104A50000149C880704700008C06002003490020EF
:104A6000C988002900D10120704700008C06002071
:104A70002DE9F041044600680169E26821F44051E3
:104A8000114301612169A068E2690843616911432A
:104A900008432168CA6849F20C639A430243CA601A
:104AA00020684169A26921F4407111434161E069C4
:104AB000192764253226B0F5004F354A354920685C
:104AC0004FF0000806D0884201D0904236D1FCF762
:104AD00013FA35E0884201D0904202D1FCF70CFA7B
:104AE00001E0FCF7F9F961684A18A0FB070148EBFF
:104AF0000803FBF765FB0146B0FBF5F00201B1FBD3
:104B0000F5F06FF01803584301EB800006EBC0008E
:104B1000B0FBF5F000F0F80002EB4002B1FBF5F05D
:104B2000584301EB800006EBC000B0FBF5F000F04D
:104B30000700216810448860BDE8F081FCF7CCF9DB
:104B400061688B0F8A00A0FB0701FBF739FB014668
:104B5000B0FBF5F06FF01802504301EB800006EB5C
:104B60000010B0FBF5F000F0F002B1FBF5F002EB45
:104B70000012B1FBF5F06FF01803584301EB800011
:104B800006EB0010B0FBF5F000F00F00D1E70000DD
:104B90000014014000100140002180F81C117047F2
:104BA000FBF7ADBC08B508218DF8001001236A465B
:104BB000FF2100F06EF808BDF8B52B4D90F81C21D0
:104BC000044632B394F81D61CAB286B10023012EA7
:104BD00015D094F89A7000F19901BF1CBE4219D209
:104BE000725494F81D01401C84F81D0139E084F8CA
:104BF00099201D4D208AAD1C60820120F4E784F8C5
:104C00009A20022084F81D01D0B2802829D384F88C
:104C10001D3126E084F81B216382D4F82001124D57
:104C2000C2682D1D22F02002C26084F81C310846A3
:104C3000FBF750FC94F81B11884209D1A66894F840
:104C40009A3094F8991004F19B022068B04708E06C
:104C50000A208DF8000001236A46FF21204600F05B
:104C600018F82846F8BD0000EA5C000890F81C110E
:104C700009B101207047002180F81D11012180F841
:104C80001C11D0F82001C16841F02001C160022050
:104C9000704710B5044690F8970008B1012010BD88
:104CA000217504F11600637503E012F8011B00F88A
:104CB000011B5B1EDBB2F8D204F11400FBF70AFC07
:104CC00084F89600002184F89810012184F8971048
:104CD000D4F82001C16841F08001C160022010BDFC
:104CE00090F897200146002A1ED091F898204AB1EA
:104CF000012A09D04B7D9B1C9A4207D201F1140373
:104D0000D25C05E00A7D03E04A7D01E091F896203F
:104D1000D0F820315A604B7D91F898209B1C9A4224
:104D200003D2521C80F898207047D1F82001C26845
:104D300022F08002C260002081F89700D1E90001D2
:104D4000084770B58268007D01240F2952F8205071
:104D50002AD2DFE801F0291915082A2A111D212578
:104D60002929292915002846FCF747FE06281CD1C9
:104D70002846FCF778FE18E02846FCF73EFE18B1FE
:104D80002846FCF76CFE10E02846FCF75DFE0CE0C0
:104D90002846FCF7F7FD08E02846FCF7A9FD04E0EB
:104DA0002846FCF79DFD00E00024204670BD10B5AC
:104DB0008368007D01EB8101490053F820003C230A
:104DC00091FBF3F109B2FCF7CDFD012010BD10B548
:104DD0008368007D53F82000FCF7CBFD012010BD57
:104DE000002070472DE9FC410646C368007DB46889
:104DF00053F8203054F8205000200AB101241470D8
:104E00000A24092724296FD015DC242944D2DFE89D
:104E100001F0494D52768057595B6E939597729980
:104E20009EA3A8BE4343FDE74343435D62FC434367
:104E300067FBFA43F9F835296FD00DDCA1F12501A4
:104E4000102929D2DFE801F0EBEAE0DF5357E9E867
:104E5000E7E62828B7E5E4E35B2955D00EDC4129D5
:104E600049D006DC36297DD03F297CD0402913D19A
:104E70008AE1422978D043290ED163E172290FD00B
:104E800006DC6E294ED06F2951D0702904D12CE058
:104E9000732905D0812903D0002A01D00021117087
:104EA000BDE8FC81304600F0D0F9F9E7986ABDE82A
:104EB000FC41FEF7A3BE986ABDE8FC41FEF7A3BE25
:104EC000186840E0186843E0186846E0186BBDE8D1
:104ED000FC4100F08BBBD86ABDE8FC41FDF7BBBCD0
:104EE0002846FCF752FD52E16BE1C548D8E7284659
:104EF000FCF775FD7CE12846FCF771FD7DE1284655
:104F0000BDE8FC41FCF749BD2846FCF746FD0128F9
:104F100004D02846FCF76EFD39E1D7E02846FCF7BF
:104F200061FD34E11868BDE8FC41FDF7D0BC1868AC
:104F3000BDE8FC41FDF7C6BC586804E0586807E0CE
:104F400058680AE09868BDE8FC41FDF7BDBC986868
:104F5000BDE8FC41FDF7B3BC9868BDE8FC41FDF736
:104F6000ABBC02E0C6E006E1D8E0317D306950F824
:104F700021100020B7EB117F00D19869C1F30361C4
:104F8000092900D1D869D8B301AA694610E0317D5A
:104F9000306950F821100020B7EB117F00D19869DB
:104FA000C1F30361092900D1D86948B36A4601A950
:104FB000FFF7A8F84AE0327D316951F8222000213C
:104FC000B7EB127F00D19969C2F30362092A00D1BD
:104FD000D96900298AD0BDE8FC410846FEF7ECBC3F
:104FE000317D306950F821100020B7EB117F00D1DE
:104FF0009869C1F30361092900D1D86900B10FE0B4
:1050000024E0DAE0D1E0CCE0C7E0AFE00BE049E03B
:1050100034E01EE0EEE0E8E0E3E0DEE0D9E0D4E0FA
:1050200001AA694610E0317D306950F82110002056
:10503000B7EB117F00D19869C1F30361092900D151
:10504000D86918B16A4601A9FEF752FEBDF9000001
:1050500026E7327D316951F822200021B7EB127F1B
:1050600000D19969C2F30362092A00D1D9690029E4
:10507000EED0BDE8FC410846FEF7A4BC327D3169A4
:1050800051F822200021B7EB127F00D19969C2F3B9
:105090000362092A00D1D9690029D9D00846FFF74F
:1050A00022F8A5E0327D316951F822200021B7EBCA
:1050B000127F00D19969C2F30362092A00D1D9692C
:1050C0000029C5D00846FFF70EF896E0327D316919
:1050D00051F822200021B7EB127F00D19969C2F369
:1050E0000362092A00D1D9690029B1D00846FEF728
:1050F000EEFF7DE0327D316951F822200021B7EBCF
:10510000127F00D19969C2F30362092A00D1D969DB
:1051100000299DD00846FEF7DAFF6EE0327D316946
:1051200051F822200021B7EB127F00D19969C2F318
:105130000362092A00D1D969002989D00846FEF7FF
:10514000CFFF5AE0327D316951F822200021B7EBC0
:10515000127F00D19969C2F30362092A00D1D9698B
:10516000002985D00846FEF7CAFF46E0D86BBDE8A7
:10517000FC41FDF79BB9586AFEF7EEFCC0EB00104E
:105180008000B0FBF4F08BE6586AFEF7F0FCC0EB51
:105190000010800090FBF4F082E62846FCF71CFC2F
:1051A00026E02846FCF718FC27E059690029EAD0D8
:1051B000BDE8FC410846FEF752BB2846FCF7EFFB72
:1051C00016E02846FCF7EBFB17E02846FCF7EAFB65
:1051D0000EE02846FCF7E6FB0FE02846FCF718FC3B
:1051E00006E02846FCF714FC07E02846FCF70CFC18
:1051F00000B255E62846FCF707FC001450E6000014
:105200007A84A6342DE9F0478846C168007DDDF830
:1052100020901E4651F8200017460125446984B1AC
:1052200041462046FEF71EFB388041462046FEF7E9
:105230001FFB308041462046FEF721FBA9F8000005
:1052400000E000252846BDE8F087007D704710B5D6
:10525000FCF7E8FF18B1BDE81040FDF71BB8BDE84A
:105260001040FDF711B810B5029C01710021C0E992
:1052700002230175046110BD0948418811B14188BC
:10528000491E41808188012902D98188491E818077
:105290000188012902D90188491E01807047000058
:1052A000E40600200246012013798B4201D8002039
:1052B000704711757047000001494F208880704782
:1052C000E40600200149002088807047E4060020A1
:1052D00030B48468007D61F30F03194654F8200050
:1052E00030BC62F31F41FCF7A0BB2DE9FC41154621
:1052F00002468068137D01268C4650F82370D068E2
:105300002CB20C2950F823006DD00ADCBCF10C0F34
:1053100025D2DFE80CF02824243C2436383A5359AF
:105320005E630921BCF1110F7DD00CDCBCF10D0FC7
:1053300063D0BCF10E0F62D0BCF10F0F61D0BCF195
:10534000100F0CD15FE0BCF1140F6DD0BCF1150F44
:105350006BD0BCF1410F69D0BCF15B0F09D00026C6
:105360003046BDE8FC81E9B21046FFF79BFF0646D8
:10537000F6E705EB850040003C2190FBF1F001B21F
:1053800017E0006821E0006824E0006827E015F0DD
:10539000FF0F07D13846FCF733FB014600223846A1
:1053A000FCF7E7FAE8B20128DAD13846FCF722FB2D
:1053B000014600223846FCF7D5FAD1E73846FCF71B
:1053C0000EFB64F30F0013E040682146FDF791FAED
:1053D000C6E740682146FDF78AFAC1E740682146E2
:1053E000FDF783FABCE73846FCF7F9FA64F31F408F
:1053F00001463846FCF719FBB2E78068E5E78068AC
:10540000E8E78068EBE71269002552F82320B1EB4A
:10541000127F00D18569C2F30361092900D1C569F2
:10542000002D9DD003E00BE025E03CE056E06A460D
:1054300001A92846FEF766FEBDF90020214616E0C8
:105440001269002552F82320B1EB127F00D1856943
:10545000C2F30361092900D1C569002D80D001AADA
:1054600069462846FEF74EFEBDF900102246284642
:10547000FEF7D0FE74E71269002552F82320B1EB45
:10548000127F00D18569C2F30361092900D1C56982
:10549000002D92D001AA69462846FEF729FC224633
:1054A000BDF9001016E01269002552F82320B1EB77
:1054B000127F00D18569C2F30361092900D1C56952
:1054C000002D85D06A4601A92846FEF711FCBDF9DA
:1054D000002021462846FEF7A4FE41E72146384633
:1054E000FCF7ADFA3CE72DE9F0410D46C168007DBF
:1054F0001E46069C51F82000294647693846FEF7AB
:10550000EBF9324629463846FEF7ECF922462946A1
:105510003846FEF7EDF90120BDE8F0812DE9FC47A2
:10552000114C0546904689460E480A9E1F46182291
:105530000E49A060FAF775FE0D48FFF731FB0D48E4
:10554000CDE900060C4B0D4A0949A068FCF742FB67
:1055500000953B4642464946A068FFF784FEBDE8F9
:10556000FC870000F4070020E4060020000700206C
:1055700050050020994B00086D4C0008934C000822
:1055800010B5194CD4F820010168C1F3401179B16C
:105590004068C1B22046FFF70FFB0088012802D007
:1055A000022803D004E0FFF787FE01E0FFF78AFE40
:1055B000D4F820010068C0F3C01010B10A48FFF70A
:1055C0008FFBD4F820010068C0F3C00000280AD087
:1055D0000548FFF7E7FAD4F82001FCF77BF9BDE8AE
:1055E0001040FFF76FBE10BD50050020C1884088F5
:1055F0004843000C7047C088704770B5038D002287
:10560000012B1DD9D0E9084323444FEAE3744362D8
:1056100003EB14434FEA2343C381448B457803FBD8
:1056200004F303EB83034FEA4304C36903FB05F36D
:1056300094FBF3F30B808381038DA3F1010315E049
:1056400016D1438D0B808381B1F90030C46903FB0F
:1056500004F3448B04EB84044FEA440493FBF4F317
:10566000447813FB04F3C3814FF00003038501E08A
:1056700083890B8090F82D3023B1FEF7ADF90246F7
:10568000104670BDC1780170FAE7F0B590F833208C
:105690000124012A10D0028EB0F90E301A4412B241
:1056A00002864578C68893FBF5F53544C58090F8A9
:1056B0002C50012D03D030E0B1F900202DE0B0F9DD
:1056C0002E50012645B16D1E2DB2C585002B0B88CD
:1056D00009DB9B1A1BB20AE0B1F9002080F82D60AB
:1056E0000021017019E0D31A1BB24FF0FF3415FBF3
:1056F00003F5B0F9367095FBF7F515FB04F424B209
:10570000002B04DB80F832600988091B04E090F864
:10571000323013B1098821440AB282801046F0BDAC
:1057200000218180C1808181C1814182017001623B
:1057300041620185018680F82C1080F82D10C28E00
:10574000C28580F8321080F83310704710B5FFF72B
:10575000E7FF10BDF0B590F82C30002B1FD1FAB147
:10576000838E53434FF47A72B3FBF2F2521C92B21F
:105770000285478BC569B0F90E60447807EB87074F
:105780004D437F0096FBF4F395FBF7F5EB1A1B04F2
:1057900093FBF2F254430462418531044162F0BD4F
:1057A0008181C269438B4A4303EB83035B0092FB15
:1057B000F3F2437812FB03F2C28100220285418595
:1057C000F0BD0186427891FBF2F2C2808180704781
:1057D000012249B1012180F82C10C38E23B980F831
:1057E0002D10002101700A461046704790F82D00D8
:1057F00070470907090E002804DB00F1E02080F85B
:105800000014704700F00F0000F1E02080F8141D34
:10581000704702E008C8121F08C1002AFAD1704779
:105820007047002001E001C1121F002AFBD1704720
:10583000002801DA424200E0024601214FEA01005D
:10584000C1F11F0300FA03F39A4203D2491CC9B203
:105850002029F5D3491E884070470000FBF70AFA5B
:10586000FEF700FDFCF7F6FEFCF724FEFCF78EFECB
:10587000FCF746FF1F481E490C2201604FF4E1313E
:10588000416000218160C160C0E904128161C16191
:10589000FBF7E9FE08B172B6FEE7002202211220F2
:1058A000FBF748FA1220FBF737FA002203211720F2
:1058B000FBF740FA1720FBF72FFA002204211820EB
:1058C000FBF738FA1820FBF727FA002211461920B7
:1058D000FBF730FA1920FBF71FFA002203212520DD
:1058E000FBF728FA2520FBF717FAFCF7EDFEFEE799
:1058F000001001407409002070B51B4C4FF400717A
:105900002046FBF755FFE1142046FBF751FF174DEA
:10591000A61431462846FBF74BFF71002046FBF7E3
:1059200047FF21152046FBF743FF31462046FBF792
:105930003FFFA1152046FBF73BFF0D4C02212046FF
:10594000FBF736FF40212046FBF732FF202120469F
:10595000FBF72EFF01212846FBF72AFF2846BDE86A
:1059600070400221FBF724BF0010024000040240F7
:1059700000000240154908B50868012282434FF033
:10598000804010D00A6842F001020A600A6802F002
:1059900001020092426942F001024261086820F06F
:1059A0000100086008BD4168426801F0700122F002
:1059B000700242F020024260426942F001024261FC
:1059C000426822F070020A43426008BD403802403B
:1059D000F0B50468012604F070046409032C08D0B3
:1059E000521C52085FEA42146FF002050561002262
:1059F00010E054012034F7E70769C7F340074FB1BF
:105A00000561521C92B2A24204D31878102800D229
:105A10000E80F0BD1F78102FEED3F0BD0000C9003E
:105A200092015B022403ED03B6047F0548061107CB
:105A3000D907A2086A09330AFB0AC40B8C0C540D5F
:105A40001C0EE30EAB0F72103A110112C8128F1325
:105A500055141C15E215A8166E173318F918BE193F
:105A6000821A471B0B1CCF1C931D571E1A1FDD1FCC
:105A70009F2061212322E522A62367242825E825EB
:105A8000A82667272628E528A329612A1F2BDC2BB7
:105A9000992C552D112ECC2E872F4130FB30B5314E
:105AA0006E322633DF3396344D350436BA366F37CF
:105AB0002438D9388C39403AF23AA53B563C073D58
:105AC000B83D683E173FC53F73402141CE417A4201
:105AD0002543D0437A442445CD4575461C47C347EA
